00AP38038000101006182920160229201603022152TRXAZ.REG.LE EM.SAN.ARES118                                        VIA PORTUENSE 240                                               ROMA                            00149       ITALY               EBELLANI@ARES118.IT                                                             E                                                                                                                                                                                      
1020160229022914931201804777010061829010141415710200139564002788   DT00907792201601311108CS352FJ                    14250201443                  YNSARES 118       AP380007192         DISTRIBUTORE AGIP               VIA C. COLOMBO KM. 10+650       00147       ROMA                            2101030030GASOLIO                         EUREUR0000003781 0000000000134900000000510100080900000000030602200000000000865000000003930000000005101000000004795                                                     
1020160229022914931201804777010061829010141415710200139564000402   DT00900966201602011736DW056RF                    09690150444                  NNSARES 118       AP380054202         DISTRIBUTORE AGIP               P.ZZA GALENO, 2                 00162       ROMA                            2201030030GASOLIO                         EUREUR0000002706 0000000000134900000000365000080900000000021902200000000000618000000002813000000003650000000003431                                                     
1020160229022914931201804777010061829010141415710200139564000113   DT00906476201602010805DW430RF                    14350208638                  NYSARES 118       AP380026633         DISTRIBUTORE AGIP               VIA DIVILLA CARRARA             03039       SORA                            2101030030GASOLIO                         EUREUR0000001359 0000000000121400000000165000000000000000000002200000000000297000000001353000000001650000000001650                                                     
1020160229022914931201804777010061829010141415710200139564000410   DT00901023201602010255DR994XY                    12370178814                  NYSARES 118       AP380016658         DISTRIBUTORE AGIP               VIALE DELLA REPUBBLICA          03029       VEROLI                          2101030030GASOLIO                         EUREUR0000004710 0000000000118900000000560000000000000000000002200000000001010000000004590000000005600000000005600                                                     
1020160229022914931201804777010061829010141415710200139564000642   DT00901844201602011644DR787XY                    06130072917                  NNSARES 118       AP380007093         DISTRIBUTORE AGIP               LUNGOMARE DELLE SIRENE          00040       POMEZIA                         2101030030GASOLIO                         EUREUR0000001916 0000000000130500000000250000080900000000015502200000000000423000000001922000000002500000000002345                                                     
1020160229022914931201804777010061829010141415710200139564000030   DT00901880201602010911CZ139KN                    09640236478                  NNSARES 118       AP380017173         DISTRIBUTORE AGIP               VIA TOR TRE TESTE               00169       ROMA                            2101030030GASOLIO                         EUREUR0000006129 0000000000133800000000820100080900000000049602200000000001389000000006316000000008201000000007705                                                     
1020160229022914931201804777010061829010141415710200139564000055   DT00901229201602010909DR995XY                    10780180412                  NNSARES 118       AP380017183         DISTRIBUTORE AGIP               P.ZZA F.CONTEDUCA OSTIA         00122       ROMA                            2101030030GASOLIO                         EUREUR0000004037 0000000000128800000000520000080900000000032702200000000000879000000003994000000005200000000004873                                                     
1020160229022914931201804777010061829010141415710200139564000063   DT00905491201602011134CS351FJ                    11980134451                  NNSARES 118       AP380026964         DISTRIBUTORE AGIP               LUNGOTEVERE RIPA                00154       ROMA                            2201030030GASOLIO                         EUREUR0000006287 0000000000136800000000860100080900000000050902200000000001459000000006633000000008601000000008092                                                     
1020160229022914931201804777010061829010141415710200139564000196   DT00901235201602011135CY647RD                    12980160185                  NNSARES 118       AP380017183         DISTRIBUTORE AGIP               P.ZZA F.CONTEDUCA OSTIA         00122       ROMA                            2101030030GASOLIO                         EUREUR0000002959 0000000000128800000000381100080900000000023902200000000000644000000002928000000003811000000003572                                                     
1020160229022914931201804777010061829010141415710200139564000410   DT00901774201602011713CS586FJ                    10100178991                  NNSARES 118       AP380026631         DISTRIBUTORE AGIP               SS 214 KM. 4,948 "VEROLI EST"   03029       VEROLI                          2101030030GASOLIO                         EUREUR0000002321 0000000000137900000000320000080900000000018802200000000000543000000002469000000003200000000003012                                                     
1020160229022914931201804777010061829010141415710200139564001897   DT00903132201602011049CS352FJ                    11860312741                  NNSARES 118       AP380016649         DISTRIBUTORE AGIP               MONTILEPINIKM.5,81              03100       FROSINONE                       2101030030GASOLIO                         EUREUR0000002796 0000000000135900000000380000080900000000022602200000000000644000000002930000000003800000000003574                                                     
1020160229022914931201804777010061829010141415710200139564002705   DT00902731201602010718DW056RF                    11030193548                  NNSARES 118       AP380057165         DISTRIBUTORE AGIP               VIA TUSCOLANA KM 19+300         00044       FRASCATI                        2101030030GASOLIO                         EUREUR0000002580 0000000000131800000000340000080900000000020902200000000000575000000002616000000003400000000003191                                                     
1020160229022914931201804777010061829010141415710200139564000238   DT00909753201602010047DW430RF                    10550333706                  NYSARES 118       AP380006905         DISTRIBUTORE AGIP               S.S.4 KM.87+602                 02100       RIETI                           2101030030GASOLIO                         EUREUR0000002300 0000000000117000000000269100000000000000000002200000000000485000000002206000000002691000000002691                                                     
1020160229022914931201804777010061829010141415710200139564000097   DT00905226201602010722DR994XY                    11930197968                  NNSARES 118       AP380027157         DISTRIBUTORE AGIP               TUSCOLANA KM 27,480             00040       MONTE COMPATRI                  2101030030GASOLIO                         EUREUR0000005849 0000000000130800000000765000080900000000047302200000000001294000000005883000000007650000000007177                                                     
1020160229022914931201804777010061829010141415710200139564002473   DT00904503201602011247DR787XY                    11240236805                  NYSARES 118       AP380007478         DISTRIBUTORE AGIP               STR.PROV.NEPESINA KM 16         01033       CIVITA CASTELLANA               2101030030GASOLIO                         EUREUR0000003874 0000000000120300000000466000000000000000000002200000000000840000000003820000000004660000000004660                                                     
1020160229022914931201804777010061829010141415710200139564001806   DT00900678201602011611CZ139KN                    14170233347                  NNSARES 118       AP380037000         DISTRIBUTORE AGIP               VIA DI MEZZOCAMMINO 94/96       00128       ROMA                            2101030030GASOLIO                         EUREUR0000005648 0000000000132800000000750100080900000000045702200000000001270000000005774000000007501000000007044                                                     
1020160229022914931201804777010061829010141415710200139564000766   DT00904661201602011832DR995XY                    03020095217                  NNSARES 118       AP380016748         DISTRIBUTORE AGIP               VIA MADONNA DELLE GRAZIE        04015       PRIVERNO                        2101030030GASOLIO                         EUREUR0000002187 0000000000132400000000289600080900000000017702200000000000490000000002229000000002896000000002719                                                     
1020160229022914931201804777010061829010141415710200139564000758   DT00904753201602011937CS351FJ                    11220264894                  NYSARES 118       AP380027206         DISTRIBUTORE AGIP               AUT.RM/FIUMICINO KM.5,657       00148       ROMA                            1101030030GASOLIO                         EUREUR0000004941 0000000000118400000000585000000000000000000002200000000001055000000004795000000005850000000005850                                                     
1020160229022914931201804777010061829010141415710200139564000758   DT00901279201602011036CY647RD                    07540061976                  NNSARES 118       AP380027210         DISTRIBUTORE AGIP               VIA DEL FARO, 149               00054       FIUMICINO                       2201030030GASOLIO                         EUREUR0000002352 0000000000131800000000310000080900000000019002200000000000525000000002385000000003100000000002910                                                     
1020160229022914931201804777010061829010141415710200139564002895   DT00905848201602011035CS586FJ                    10180156540                  NNSARES 118       AP380051431         DISTRIBUTORE AGIP               V.LE 5 GIUGNO                   01037       RONCIGLIONE                     2101030030GASOLIO                         EUREUR0000006511 0000000000133300000000867900080900000000052702200000000001470000000006682000000008679000000008152                                                     
1020160229022914931201804777010061829010141415710200139564001848   DT00902394201602011931CS352FJ                    12550206867                  NYSARES 118       AP380026616         DISTRIBUTORE AGIP               VIA RAVANO                      03037       PONTECORVO                      2101030030GASOLIO                         EUREUR0000003319 0000000000119900000000397900000000000000000002200000000000717000000003262000000003979000000003979                                                     
1020160229022914931201804777010061829010141415710200139564002556   DT00907810201602010742DW056RF                    09510242054                  NNSARES 118       AP380026618         DISTRIBUTORE AGIP               S.S.ATINA-CASSINO KM.34+2       03049       SANT'ELIA FIUMERAPIDO           2101030030GASOLIO                         EUREUR0000003400 0000000000132400000000450200080900000000027502200000000000762000000003465000000004502000000004227                                                     
1020160229022914931201804777010061829010141415710200139564002168   DT00902738201602011036DW430RF                    12410168134                  NNSARES 118       AP380057165         DISTRIBUTORE AGIP               VIA TUSCOLANA KM 19+300         00044       FRASCATI                        2101030030GASOLIO                         EUREUR0000003794 0000000000131800000000500000080900000000030702200000000000847000000003846000000005000000000004693                                                     
1020160229022914931201804777010061829010141415710200139564001137   DT00902915201602011210DR994XY                    10760241076                  NNSARES 118       AP380026699         DISTRIBUTORE AGIP               S.S.156 MONTILEPINI KM 40+700   04018       SEZZE                           2101030030GASOLIO                         EUREUR0000004978 0000000000133400000000664100080900000000040302200000000001124000000005114000000006641000000006238                                                     
1020160229022914931201804777010061829010141415710200139564001905   DT00903061201602010850DR787XY                    11140202669                  NYSARES 118       AP380007473         DISTRIBUTORE AGIP               S.S.2 KM.97+743                 01027       MONTEFIASCONE                   2101030030GASOLIO                         EUREUR0000002627 0000000000121800000000320000000000000000000002200000000000577000000002623000000003200000000003200                                                     
1020160229022914931201804777010061829010141415710200139564002200   DT00900979201602010938CZ139KN                    10070267167                  NYSARES 118       AP380056067         DISTRIBUTORE AGIP               SS 155 KM 24+895                03010       TORRE CAJETANI                  2101030030GASOLIO                         EUREUR0000002990 0000000000120400000000360000000000000000000002200000000000649000000002951000000003600000000003600                                                     
1020160229022914931201804777010061829010141415710200139564002663   DT00900287201602011659DR995XY                    14630279365                  NNSARES 118       AP380027188         DISTRIBUTORE AGIP               VIA DELLA GIUSTINIANA           00188       ROMA                            2201030030GASOLIO                         EUREUR0000004982 0000000000136500000000680000080900000000040302200000000001153000000005244000000006800000000006397                                                     
1020160229022914931201804777010061829010141415710200139564001087   DT00902441201602011445CS351FJ                    10160194614                  NYSARES 118       AP380026630         DISTRIBUTORE AGIP               VIA SAN DOMENICO                03039       SORA                            2101030030GASOLIO                         EUREUR0000006049 0000000000117400000000710200000000000000000002200000000001281000000005821000000007102000000007102                                                     
1020160229022914931201804777010061829010141415710200139564000436   DT00900501201602011733CY647RD                    13130364751                  NNSARES 118       AP380054855         DISTRIBUTORE AGIP               DI SAPONARA  597                00125       ROMA                            2101030030GASOLIO                         EUREUR0000004111 0000000000133800000000550100080900000000033302200000000000932000000004236000000005501000000005168                                                     
1020160229022914931201804777010061829010141415710200139564002762   DT00907667201602010930CS586FJ                    12230108033                  NNSARES 118       AP380036946         DISTRIBUTORE AGIP               FONTANA DELL'OSTE               00034       COLLEFERRO                      2101030030GASOLIO                         EUREUR0000004543 0000000000134300000000610100080900000000036802200000000001034000000004699000000006101000000005733                                                     
1020160229022914931201804777010061829010141415710200139564003075   DT00904726201602010836CS352FJ                    11330211985                  NNS               AP380017060         DISTRIBUTORE AGIP               EMPOLITANA KM 1                 00019       TIVOLI                          2201030030GASOLIO                         EUREUR0000003160 0000000000133900000000423100080900000000025602200000000000717000000003258000000004231000000003975                                                     
1020160229022914931201804777010061829010141415710200139564000162   DT00903059201602010811DW056RF                    09580193464                  NYSARES 118       AP380007473         DISTRIBUTORE AGIP               S.S.2 KM.97+743                 01027       MONTEFIASCONE                   2101030030GASOLIO                         EUREUR0000004187 0000000000121800000000510000000000000000000002200000000000920000000004180000000005100000000005100                                                     
1020160229022914931201804777010061829010141415710200139564002648   DT00903184201602011610DW430RF                    13750253238                  NNSARES 118       AP380017166         DISTRIBUTORE AGIP               CASTELLI ROMANI                 00040       POMEZIA                         2101030030GASOLIO                         EUREUR0000003211 0000000000130800000000420000080900000000026002200000000000710000000003230000000004200000000003940                                                     
1020160229022914931201804777010061829010141415710200139564002630   DT00909389201602011230DR994XY                    11990265047                  NNSARES 118       AP380058245         DISTRIBUTORE AGIP               CORSO FRANCIA                   00191       ROMA                            2101030030GASOLIO                         EUREUR0000004425 0000000000137900000000610200080900000000035802200000000001036000000004708000000006102000000005744                                                     
1020160229022914931201804777010061829010141415710200139564002671   DT00900004201602011406DR787XY                    14690292292                  NNSARES 118       AP380027030         DISTRIBUTORE AGIP               SALARIA KM 22+950               00015       MONTEROTONDO                    2101030030GASOLIO                         EUREUR0000003160 0000000000132900000000420000080900000000025602200000000000711000000003233000000004200000000003944                                                     
1020160229022914931201804777010061829010141415710200139564002846   DT00901583201602010843CZ139KN                    14680148123                  NNSARES 118       AP380057176         DISTRIBUTORE AGIP               VIA CASILINA KM 12+943          00133       ROMA                            2201030030GASOLIO                         EUREUR0000004449 0000000000133800000000595300080900000000036002200000000001009000000004584000000005953000000005593                                                     
1020160229022914931201804777010061829010141415710200139564002325   DT00909590201602011938DR995XY                    09660182394                  NYSARES 118       AP380006902         DISTRIBUTORE AGIP               S.S.4 KM.109+338                02013       ANTRODOCO                       2101030030GASOLIO                         EUREUR0000006500 0000000000113400000000737100000000000000000002200000000001329000000006042000000007371000000007371                                                     
1020160229022914931201804777010061829010141415710200139564002176   DT00900991201602011847CS351FJ                    14150189940                  NNSARES 118       AP380007170         DISTRIBUTORE AGIP               MENCACCI                        00042       ANZIO                           2101030030GASOLIO                         EUREUR0000005543 0000000000131800000000730600080900000000044802200000000001237000000005621000000007306000000006858                                                     
1020160229022914931201804777010061829010141415710200139564000543   DT00902666201602010958CY647RD                    11440130000                  NNSARES 118       AP380007181         DISTRIBUTORE AGIP               SUBLACENSE KM 72*883            00028       SUBIACO                         2101030030GASOLIO                         EUREUR0000003182 0000000000138300000000440100080900000000025702200000000000748000000003396000000004401000000004144                                                     
1020160229022914931201804777010061829010141415710200139564002531   DT00901020201602011510CS586FJ                    13740270891                  NNSARES 118       AP380006674         DISTRIBUTORE AGIP               S.S. 637 (VIA PER FROSINONE), 5103023       CECCANO                         2101030030GASOLIO                         EUREUR0000003214 0000000000136900000000440000080900000000026002200000000000747000000003393000000004400000000004140                                                     
1020160229022914931201804777010061829010141415710200139564000675   DT00901276201602010529CS352FJ                    08610074869                  NYSARES 118       AP380026692         DISTRIBUTORE AGIP               VIALE LE CORBUSIER              04100       LATINA                          2101030030GASOLIO                         EUREUR0000004259 0000000000117400000000500000000000000000000002200000000000902000000004098000000005000000000005000                                                     
1020160229022914931201804777010061829010141415710200139564002879   DT00900876201602010852DW056RF                    11320174033                  NNSARES 118       AP380036949         DISTRIBUTORE AGIP               VIA SANTA BARBARA ANG. CUPA DEI 00048       NETTUNO                         2101030030GASOLIO                         EUREUR0000004932 0000000000131800000000650000080900000000039902200000000001100000000005001000000006500000000006101                                                     
1020160229022914931201804777010061829010141415710200139564001434   DT00913486201602010924DW430RF                    11640218137                  NNSARES 118       AP380006905         DISTRIBUTORE AGIP               S.S.4 KM.87+602                 02100       RIETI                           2101030030GASOLIO                         EUREUR0000005149 0000000000134000000000690000080900000000041702200000000001169000000005314000000006900000000006483                                                     
1020160229022914931201804777010061829010141415710200139564002283   DT00902745201602011713DR994XY                    12410191271                  NNSARES 118       AP380057165         DISTRIBUTORE AGIP               VIA TUSCOLANA KM 19+300         00044       FRASCATI                        2101030030GASOLIO                         EUREUR0000003566 0000000000131800000000470000080900000000028802200000000000795000000003617000000004700000000004412                                                     
1020160229022914931201804777010061829010141415710200139564002119   DT00904725201602010812DR787XY                    16150285550                  NNSARES 118       AP380017060         DISTRIBUTORE AGIP               EMPOLITANA KM 1                 00019       TIVOLI                          2201030030GASOLIO                         EUREUR0000004108 0000000000133900000000550100080900000000033202200000000000932000000004237000000005501000000005169                                                     
1020160229022914931201804777010061829010141415710200139564000386   DT00906494201602011512CZ139KN                    03830150700                  NNSARES 118       AP380058951         DISTRIBUTORE AGIP               VIALE CASTRO PRETORIO,55        00185       ROMA                            2101030030GASOLIO                         EUREUR0000004265 0000000000127800000000545100080900000000034502200000000000921000000004185000000005451000000005106                                                     
1020160229022914931201804777010061829010141415710200139564001681   DT00900463201602011201DR995XY                    12080321800                  NNSARES 118       AP380053805         DISTRIBUTORE AGIP               VIA PORTUENSE,508               00143       ROMA                            2201030030GASOLIO                         EUREUR0000005298 0000000000135900000000720000080900000000042902200000000001221000000005550000000007200000000006771                                                     
1020160229022914931201804777010061829010141415710200139564003059   DT00903260201602011806CS351FJ                    13820246281                  NNS               AP380007164         DISTRIBUTORE AGIP               APPIA KM 24*591 0012            00040       CASTEL GANDOLFO                 2101030030GASOLIO                         EUREUR0000005838 0000000000134300000000784000080900000000047202200000000001329000000006039000000007840000000007368                                                     
1020160229022914931201804777010061829010141415710200139564000188   DT00903910201602010736CS352FJ                    14420208180                  NNSARES 118       AP380017121         DISTRIBUTORE AGIP               STR.PROV.MAREMMANA S            00035       OLEVANO ROMANO                  2201030030GASOLIO                         EUREUR0000004087 0000000000124800000000510100080900000000033102200000000000860000000003910000000005101000000004770                                                     
1020160229022914931201804777010061829010141415710200139564002424   DT00915849201602011524DW056RF                    12060341706                  NNSARES 118       AP380037001         DISTRIBUTORE AGIP               VIA ARIANA KM 1.227             00038       VALMONTONE                      2101030030GASOLIO                         EUREUR0000003861 0000000000129500000000500000080900000000031202200000000000846000000003842000000005000000000004688                                                     
1020160229022914931201804777010061829010141415710200139564000634   DT00902701201602011235DW430RF                    10600078512                  NNSARES 118       AP380026632         DISTRIBUTORE AGIP               V. ARMANDO FABI                 03100       FROSINONE                       2101030030GASOLIO                         EUREUR0000001461 0000000000136900000000200000080900000000011802200000000000340000000001542000000002000000000001882                                                     
1020160229022914931201804777010061829010141415710200139564002853   DT00901236201602011142DR994XY                    10290179659                  NNSARES 118       AP380017183         DISTRIBUTORE AGIP               P.ZZA F.CONTEDUCA OSTIA         00122       ROMA                            2101030030GASOLIO                         EUREUR0000001996 0000000000128800000000257100080900000000016102200000000000435000000001975000000002571000000002410                                                     
1020160229022914931201804777010061829010141415710200139564001079   DT00901155201602011053DR787XY                    07810049887                  NNSARES 118       AP380007229         DISTRIBUTORE AGIP               VIA PORTUENSE                   00149       ROMA                            2202100021SUPER SP                        EUREUR0000004068 0000000000159800000000650100080900000000032902200000000001113000000005059000000006501000000006172                                                     
1020160229022914931201804777010061829010141415710200139564002242   DT00904712201602011514CZ139KN                    08350205002                  NNSARES 118       AP380057171         DISTRIBUTORE AGIP               PALO LAZIALE                    00053       LADISPOLI                       2101030030GASOLIO                         EUREUR0000006528 0000000000134800000000880000080900000000052802200000000001492000000006780000000008800000000008272                                                     
1020160229022914931201804777010061829010141415710200139564002192   DT00907821201602011605DR995XY                    14660242851                  NNSARES 118       AP380026618         DISTRIBUTORE AGIP               S.S.ATINA-CASSINO KM.34+2       03049       SANT'ELIA FIUMERAPIDO           2101030030GASOLIO                         EUREUR0000001734 0000000000132400000000229600080900000000014002200000000000389000000001767000000002296000000002156                                                     
1020160229022914931201804777010061829010141415710200139564000428   DT00902081201602012106CS351FJ                    14090134227                  NYSARES 118       AP380006632         DISTRIBUTORE AGIP               VIA SIMONCELLI                  03039       SORA                            2101030030GASOLIO                         EUREUR0000003632 0000000000118400000000430000000000000000000002200000000000776000000003524000000004300000000004300                                                     
1020160229022914931201804777010061829010141415710200139564002416   DT00905495201602011554CY647RD                    10270420696                  NNSARES 118       AP380027200         DISTRIBUTORE AGIP               VIA TENUTA DEL CAVALIERE SETTEVI00012       GUIDONIA MONTECELIO             2201030030GASOLIO                         EUREUR0000006255 0000000000134300000000840000080900000000050602200000000001424000000006470000000008400000000007894                                                     
1020160229022914931201804777010061829010141415710200139564000238   DT00913517201602011314CS586FJ                    09870333886                  NNSARES 118       AP380006905         DISTRIBUTORE AGIP               S.S.4 KM.87+602                 02100       RIETI                           2101030030GASOLIO                         EUREUR0000002502 0000000000134000000000335300080900000000020202200000000000568000000002583000000003353000000003151                                                     
99010061829AP38020160229201603022152TRXL 001504000002                                                                                                                                                                                                                                                                                                                                                                                                                                                               
